{
  "contractName": "RentSpatialNode",
  "abi": [
    {
      "inputs": [],
      "payable": false,
      "stateMutability": "nonpayable",
      "type": "constructor"
    },
    {
      "anonymous": false,
      "inputs": [
        {
          "indexed": false,
          "internalType": "bool",
          "name": "success",
          "type": "bool"
        }
      ],
      "name": "Success",
      "type": "event"
    },
    {
      "constant": false,
      "inputs": [
        {
          "internalType": "address",
          "name": "_address",
          "type": "address"
        },
        {
          "internalType": "uint256",
          "name": "_priority",
          "type": "uint256"
        }
      ],
      "name": "SetPriority",
      "outputs": [],
      "payable": false,
      "stateMutability": "nonpayable",
      "type": "function"
    },
    {
      "constant": true,
      "inputs": [
        {
          "internalType": "int256",
          "name": "_x",
          "type": "int256"
        },
        {
          "internalType": "int256",
          "name": "_y",
          "type": "int256"
        },
        {
          "internalType": "int256",
          "name": "_z",
          "type": "int256"
        },
        {
          "internalType": "uint256",
          "name": "_start",
          "type": "uint256"
        },
        {
          "internalType": "uint256",
          "name": "_end",
          "type": "uint256"
        }
      ],
      "name": "CheckAvailable",
      "outputs": [
        {
          "internalType": "bool",
          "name": "",
          "type": "bool"
        }
      ],
      "payable": false,
      "stateMutability": "view",
      "type": "function"
    },
    {
      "constant": false,
      "inputs": [
        {
          "internalType": "int256",
          "name": "_x",
          "type": "int256"
        },
        {
          "internalType": "int256",
          "name": "_y",
          "type": "int256"
        },
        {
          "internalType": "int256",
          "name": "_z",
          "type": "int256"
        },
        {
          "internalType": "uint256",
          "name": "_start",
          "type": "uint256"
        },
        {
          "internalType": "uint256",
          "name": "_duration",
          "type": "uint256"
        },
        {
          "internalType": "string",
          "name": "_ip",
          "type": "string"
        },
        {
          "internalType": "uint256",
          "name": "_port",
          "type": "uint256"
        }
      ],
      "name": "RentNode",
      "outputs": [],
      "payable": false,
      "stateMutability": "nonpayable",
      "type": "function"
    },
    {
      "constant": true,
      "inputs": [
        {
          "internalType": "int256",
          "name": "_x",
          "type": "int256"
        },
        {
          "internalType": "int256",
          "name": "_y",
          "type": "int256"
        },
        {
          "internalType": "int256",
          "name": "_z",
          "type": "int256"
        }
      ],
      "name": "GetOwner",
      "outputs": [
        {
          "components": [
            {
              "internalType": "address",
              "name": "publicAddress",
              "type": "address"
            },
            {
              "internalType": "string",
              "name": "ipAdress",
              "type": "string"
            },
            {
              "internalType": "uint256",
              "name": "port",
              "type": "uint256"
            },
            {
              "internalType": "uint256",
              "name": "priority",
              "type": "uint256"
            }
          ],
          "internalType": "struct RentSpatialNode.Actor",
          "name": "",
          "type": "tuple"
        }
      ],
      "payable": false,
      "stateMutability": "view",
      "type": "function"
    },
    {
      "constant": true,
      "inputs": [
        {
          "internalType": "int256",
          "name": "_x",
          "type": "int256"
        },
        {
          "internalType": "int256",
          "name": "_y",
          "type": "int256"
        },
        {
          "internalType": "int256",
          "name": "_z",
          "type": "int256"
        }
      ],
      "name": "GetEndTime",
      "outputs": [
        {
          "internalType": "uint256",
          "name": "",
          "type": "uint256"
        }
      ],
      "payable": false,
      "stateMutability": "view",
      "type": "function"
    },
    {
      "constant": false,
      "inputs": [
        {
          "internalType": "int256",
          "name": "_x",
          "type": "int256"
        },
        {
          "internalType": "int256",
          "name": "_y",
          "type": "int256"
        },
        {
          "internalType": "int256",
          "name": "_z",
          "type": "int256"
        },
        {
          "internalType": "address",
          "name": "_newOwner",
          "type": "address"
        },
        {
          "internalType": "string",
          "name": "_ip",
          "type": "string"
        },
        {
          "internalType": "uint256",
          "name": "_port",
          "type": "uint256"
        }
      ],
      "name": "ChangeOwner",
      "outputs": [],
      "payable": false,
      "stateMutability": "nonpayable",
      "type": "function"
    },
    {
      "constant": false,
      "inputs": [
        {
          "internalType": "int256",
          "name": "_x",
          "type": "int256"
        },
        {
          "internalType": "int256",
          "name": "_y",
          "type": "int256"
        },
        {
          "internalType": "int256",
          "name": "_z",
          "type": "int256"
        },
        {
          "internalType": "uint256",
          "name": "_duration",
          "type": "uint256"
        }
      ],
      "name": "AddTimeToRental",
      "outputs": [],
      "payable": false,
      "stateMutability": "nonpayable",
      "type": "function"
    }
  ],
  "bytecode": "0x608060405234801561001057600080fd5b5033600260006101000a81548173ffffffffffffffffffffffffffffffffffffffff021916908373ffffffffffffffffffffffffffffffffffffffff16021790555061218f806100616000396000f3fe608060405234801561001057600080fd5b506004361061007d5760003560e01c806379be1d5a1161005b57806379be1d5a146100d657806381af0a69146100f257806381cff33914610122578063db362a33146101525761007d565b80631b64b8521461008257806332b3c1331461009e578063799b4f53146100ba575b600080fd5b61009c600480360361009791908101906119e5565b610182565b005b6100b860048036036100b39190810190611b60565b6105da565b005b6100d460048036036100cf919081019061195a565b61081e565b005b6100f060048036036100eb9190810190611a86565b6108f5565b005b61010c60048036036101079190810190611ae9565b610c1f565b6040516101199190611eb7565b60405180910390f35b61013c60048036036101379190810190611996565b610e7b565b6040516101499190611fab565b60405180910390f35b61016c60048036036101679190810190611996565b61109a565b6040516101799190611f89565b60405180910390f35b6000809050600080905060608888886040516020016101a393929190611ed2565b604051602081830303815290604052905060008090505b6001826040516101ca9190611ea0565b908152602001604051809103902080549050811015610399576101eb611601565b6001836040516101fb9190611ea0565b9081526020016040518091039020828154811061021457fe5b9060005260206000209060060201604051806060016040529081600082016040518060800160405290816000820160009054906101000a900473ffffffffffffffffffffffffffffffffffffffff1673ffffffffffffffffffffffffffffffffffffffff1673ffffffffffffffffffffffffffffffffffffffff168152602001600182018054600181600116156101000203166002900480601f01602080910402602001604051908101604052809291908181526020018280546001816001161561010002031660029004801561032c5780601f106103015761010080835404028352916020019161032c565b820191906000526020600020905b81548152906001019060200180831161030f57829003601f168201915b505050505081526020016002820154815260200160038201548152505081526020016004820154815260200160058201548152505090504281602001511080156103795750428160400151115b1561038b578194506001935050610399565b5080806001019150506101ba565b50816103da576040517f08c379a00000000000000000000000000000000000000000000000000000000081526004016103d190611f09565b60405180910390fd5b6001816040516103ea9190611ea0565b9081526020016040518091039020838154811061040357fe5b906000526020600020906006020160000160000160009054906101000a900473ffffffffffffffffffffffffffffffffffffffff1673ffffffffffffffffffffffffffffffffffffffff163373ffffffffffffffffffffffffffffffffffffffff16146104a5576040517f08c379a000000000000000000000000000000000000000000000000000000000815260040161049c90611f69565b60405180910390fd5b60405180608001604052808773ffffffffffffffffffffffffffffffffffffffff1681526020018681526020018581526020016000808973ffffffffffffffffffffffffffffffffffffffff1673ffffffffffffffffffffffffffffffffffffffff1681526020019081526020016000205481525060018260405161052a9190611ea0565b9081526020016040518091039020848154811061054357fe5b906000526020600020906006020160000160008201518160000160006101000a81548173ffffffffffffffffffffffffffffffffffffffff021916908373ffffffffffffffffffffffffffffffffffffffff16021790555060208201518160010190805190602001906105b7929190611628565b506040820151816002015560608201518160030155905050505050505050505050565b428410156105e6574293505b600083850190506105f8888888611311565b6106058888888885610c1f565b610646577f3b0a8ddef325df2bfdfa6b430ae4c8421841cd135bfa8fb5e432f200787520bb60006040516106399190611eb7565b60405180910390a1610814565b600188888860405160200161065d93929190611ed2565b6040516020818303038152906040526040516106799190611ea0565b9081526020016040518091039020604051806060016040528060405180608001604052803373ffffffffffffffffffffffffffffffffffffffff1681526020018781526020018681526020016000803373ffffffffffffffffffffffffffffffffffffffff1673ffffffffffffffffffffffffffffffffffffffff168152602001908152602001600020548152508152602001878152602001838152509080600181540180825580915050906001820390600052602060002090600602016000909192909190915060008201518160000160008201518160000160006101000a81548173ffffffffffffffffffffffffffffffffffffffff021916908373ffffffffffffffffffffffffffffffffffffffff16021790555060208201518160010190805190602001906107ad929190611628565b506040820151816002015560608201518160030155505060208201518160040155604082015181600501555050507f3b0a8ddef325df2bfdfa6b430ae4c8421841cd135bfa8fb5e432f200787520bb600160405161080b9190611eb7565b60405180910390a15b5050505050505050565b600260009054906101000a900473ffffffffffffffffffffffffffffffffffffffff1673ffffffffffffffffffffffffffffffffffffffff163373ffffffffffffffffffffffffffffffffffffffff16146108ae576040517f08c379a00000000000000000000000000000000000000000000000000000000081526004016108a590611f49565b60405180910390fd5b806000808473ffffffffffffffffffffffffffffffffffffffff1673ffffffffffffffffffffffffffffffffffffffff168152602001908152602001600020819055505050565b606084848460405160200161090c93929190611ed2565b6040516020818303038152906040529050600080905060008090505b6001836040516109389190611ea0565b908152602001604051809103902080549050811015610b0357610959611601565b6001846040516109699190611ea0565b9081526020016040518091039020828154811061098257fe5b9060005260206000209060060201604051806060016040529081600082016040518060800160405290816000820160009054906101000a900473ffffffffffffffffffffffffffffffffffffffff1673ffffffffffffffffffffffffffffffffffffffff1673ffffffffffffffffffffffffffffffffffffffff168152602001600182018054600181600116156101000203166002900480601f016020809104026020016040519081016040528092919081815260200182805460018160011615610100020316600290048015610a9a5780601f10610a6f57610100808354040283529160200191610a9a565b820191906000526020600020905b815481529060010190602001808311610a7d57829003601f168201915b50505050508152602001600282015481526020016003820154815250508152602001600482015481526020016005820154815250509050428160200151108015610ae75750428160400151115b15610af55781925050610b03565b508080600101915050610928565b50600182604051610b149190611ea0565b90815260200160405180910390208181548110610b2d57fe5b906000526020600020906006020160000160000160009054906101000a900473ffffffffffffffffffffffffffffffffffffffff1673ffffffffffffffffffffffffffffffffffffffff163373ffffffffffffffffffffffffffffffffffffffff1614610bcf576040517f08c379a0000000000000000000000000000000000000000000000000000000008152600401610bc690611f29565b60405180910390fd5b82600183604051610be09190611ea0565b90815260200160405180910390208281548110610bf957fe5b906000526020600020906006020160050160008282540192505081905550505050505050565b60006060868686604051602001610c3893929190611ed2565b604051602081830303815290604052905060008090505b600182604051610c5f9190611ea0565b908152602001604051809103902080549050811015610e6b57610c80611601565b600183604051610c909190611ea0565b90815260200160405180910390208281548110610ca957fe5b9060005260206000209060060201604051806060016040529081600082016040518060800160405290816000820160009054906101000a900473ffffffffffffffffffffffffffffffffffffffff1673ffffffffffffffffffffffffffffffffffffffff1673ffffffffffffffffffffffffffffffffffffffff168152602001600182018054600181600116156101000203166002900480601f016020809104026020016040519081016040528092919081815260200182805460018160011615610100020316600290048015610dc15780601f10610d9657610100808354040283529160200191610dc1565b820191906000526020600020905b815481529060010190602001808311610da457829003601f168201915b5050505050815260200160028201548152602001600382015481525050815260200160048201548152602001600582015481525050905080602001518610158015610e0f5750806040015186105b80610e2d5750806020015185118015610e2c575080604001518511155b5b80610e4c575080602001518611158015610e4b575080604001518510155b5b15610e5d5760009350505050610e72565b508080600101915050610c4f565b5060019150505b95945050505050565b60006060848484604051602001610e9493929190611ed2565b604051602081830303815290604052905060008090505b600182604051610ebb9190611ea0565b90815260200160405180910390208054905081101561108c57610edc611601565b600183604051610eec9190611ea0565b90815260200160405180910390208281548110610f0557fe5b9060005260206000209060060201604051806060016040529081600082016040518060800160405290816000820160009054906101000a900473ffffffffffffffffffffffffffffffffffffffff1673ffffffffffffffffffffffffffffffffffffffff1673ffffffffffffffffffffffffffffffffffffffff168152602001600182018054600181600116156101000203166002900480601f01602080910402602001604051908101604052809291908181526020018280546001816001161561010002031660029004801561101d5780601f10610ff25761010080835404028352916020019161101d565b820191906000526020600020905b81548152906001019060200180831161100057829003601f168201915b5050505050815260200160028201548152602001600382015481525050815260200160048201548152602001600582015481525050905042816020015110801561106a5750428160400151115b1561107e5780604001519350505050611093565b508080600101915050610eab565b5060009150505b9392505050565b6110a26116a8565b60608484846040516020016110b993929190611ed2565b60405160208183030381529060405290506110d26116a8565b6040518060800160405280600073ffffffffffffffffffffffffffffffffffffffff168152602001604051806020016040528060008152508152602001600081526020016000815250905060008090505b6001836040516111339190611ea0565b90815260200160405180910390208054905081101561130457611154611601565b6001846040516111649190611ea0565b9081526020016040518091039020828154811061117d57fe5b9060005260206000209060060201604051806060016040529081600082016040518060800160405290816000820160009054906101000a900473ffffffffffffffffffffffffffffffffffffffff1673ffffffffffffffffffffffffffffffffffffffff1673ffffffffffffffffffffffffffffffffffffffff168152602001600182018054600181600116156101000203166002900480601f0160208091040260200160405190810160405280929190818152602001828054600181600116156101000203166002900480156112955780601f1061126a57610100808354040283529160200191611295565b820191906000526020600020905b81548152906001019060200180831161127857829003601f168201915b50505050508152602001600282015481526020016003820154815250508152602001600482015481526020016005820154815250509050428160200151111580156112e4575042816040015110155b156112f6578060000151925050611304565b508080600101915050611123565b5080925050509392505050565b606083838360405160200161132893929190611ed2565b604051602081830303815290604052905060008090505b60018260405161134f9190611ea0565b9081526020016040518091039020805490508110156115fa576001826040516113789190611ea0565b9081526020016040518091039020818154811061139157fe5b9060005260206000209060060201600501544211156115ed576001826040516113ba9190611ea0565b9081526020016040518091039020600180846040516113d99190611ea0565b90815260200160405180910390208054905003815481106113f657fe5b90600052602060002090600602016001836040516114149190611ea0565b9081526020016040518091039020828154811061142d57fe5b906000526020600020906006020160008201816000016000820160009054906101000a900473ffffffffffffffffffffffffffffffffffffffff168160000160006101000a81548173ffffffffffffffffffffffffffffffffffffffff021916908373ffffffffffffffffffffffffffffffffffffffff160217905550600182018160010190805460018160011615610100020316600290046114d19291906116e6565b5060028201548160020155600382015481600301555050600482015481600401556005820154816005015590505060018260405161150f9190611ea0565b90815260200160405180910390206001808460405161152e9190611ea0565b908152602001604051809103902080549050038154811061154b57fe5b90600052602060002090600602016000808201600080820160006101000a81549073ffffffffffffffffffffffffffffffffffffffff0219169055600182016000611596919061176d565b6002820160009055600382016000905550506004820160009055600582016000905550506001826040516115ca9190611ea0565b90815260200160405180910390208054809190600190036115eb91906117b5565b505b808060010191505061133f565b5050505050565b60405180606001604052806116146117e7565b815260200160008152602001600081525090565b828054600181600116156101000203166002900490600052602060002090601f016020900481019282601f1061166957805160ff1916838001178555611697565b82800160010185558215611697579182015b8281111561169657825182559160200191906001019061167b565b5b5090506116a49190611825565b5090565b6040518060800160405280600073ffffffffffffffffffffffffffffffffffffffff1681526020016060815260200160008152602001600081525090565b828054600181600116156101000203166002900490600052602060002090601f016020900481019282601f1061171f578054855561175c565b8280016001018555821561175c57600052602060002091601f016020900482015b8281111561175b578254825591600101919060010190611740565b5b5090506117699190611825565b5090565b50805460018160011615610100020316600290046000825580601f1061179357506117b2565b601f0160209004906000526020600020908101906117b19190611825565b5b50565b8154818355818111156117e2576006028160060283600052602060002091820191016117e1919061184a565b5b505050565b6040518060800160405280600073ffffffffffffffffffffffffffffffffffffffff1681526020016060815260200160008152602001600081525090565b61184791905b8082111561184357600081600090555060010161182b565b5090565b90565b6118c491905b808211156118c0576000808201600080820160006101000a81549073ffffffffffffffffffffffffffffffffffffffff0219169055600182016000611895919061176d565b6002820160009055600382016000905550506004820160009055600582016000905550600601611850565b5090565b90565b6000813590506118d681612107565b92915050565b6000813590506118eb8161211e565b92915050565b600082601f83011261190257600080fd5b813561191561191082611ff3565b611fc6565b9150808252602083016020830185838301111561193157600080fd5b61193c8382846120b4565b50505092915050565b60008135905061195481612135565b92915050565b6000806040838503121561196d57600080fd5b600061197b858286016118c7565b925050602061198c85828601611945565b9150509250929050565b6000806000606084860312156119ab57600080fd5b60006119b9868287016118dc565b93505060206119ca868287016118dc565b92505060406119db868287016118dc565b9150509250925092565b60008060008060008060c087890312156119fe57600080fd5b6000611a0c89828a016118dc565b9650506020611a1d89828a016118dc565b9550506040611a2e89828a016118dc565b9450506060611a3f89828a016118c7565b935050608087013567ffffffffffffffff811115611a5c57600080fd5b611a6889828a016118f1565b92505060a0611a7989828a01611945565b9150509295509295509295565b60008060008060808587031215611a9c57600080fd5b6000611aaa878288016118dc565b9450506020611abb878288016118dc565b9350506040611acc878288016118dc565b9250506060611add87828801611945565b91505092959194509250565b600080600080600060a08688031215611b0157600080fd5b6000611b0f888289016118dc565b9550506020611b20888289016118dc565b9450506040611b31888289016118dc565b9350506060611b4288828901611945565b9250506080611b5388828901611945565b9150509295509295909350565b600080600080600080600060e0888a031215611b7b57600080fd5b6000611b898a828b016118dc565b9750506020611b9a8a828b016118dc565b9650506040611bab8a828b016118dc565b9550506060611bbc8a828b01611945565b9450506080611bcd8a828b01611945565b93505060a088013567ffffffffffffffff811115611bea57600080fd5b611bf68a828b016118f1565b92505060c0611c078a828b01611945565b91505092959891949750929550565b611c1f81612062565b82525050565b611c2e81612074565b82525050565b6000611c3f8261201f565b611c498185612035565b9350611c598185602086016120c3565b80840191505092915050565b611c6e81612080565b82525050565b6000611c7f8261202a565b611c898185612040565b9350611c998185602086016120c3565b611ca2816120f6565b840191505092915050565b6000611cba602183612051565b91507f4e6f206f776e65722077617320666f756e6420666f722074686973206e6f646560008301527f2e000000000000000000000000000000000000000000000000000000000000006020830152604082019050919050565b6000611d20601883612051565b91507f4f6e6c79206f776e65722063616e206164642074696d652e00000000000000006000830152602082019050919050565b6000611d60602583612051565b91507f4f6e6c7920636f6e7472616374206f776e65722063616e20736574207072696f60008301527f726974792e0000000000000000000000000000000000000000000000000000006020830152604082019050919050565b6000611dc6602b83612051565b91507f4f776e6572206d757374207265717565737420746865206368616e676520696e60008301527f206f776e6572736869702e0000000000000000000000000000000000000000006020830152604082019050919050565b6000608083016000830151611e376000860182611c16565b5060208301518482036020860152611e4f8282611c74565b9150506040830151611e646040860182611e82565b506060830151611e776060860182611e82565b508091505092915050565b611e8b816120aa565b82525050565b611e9a816120aa565b82525050565b6000611eac8284611c34565b915081905092915050565b6000602082019050611ecc6000830184611c25565b92915050565b6000606082019050611ee76000830186611c65565b611ef46020830185611c65565b611f016040830184611c65565b949350505050565b60006020820190508181036000830152611f2281611cad565b9050919050565b60006020820190508181036000830152611f4281611d13565b9050919050565b60006020820190508181036000830152611f6281611d53565b9050919050565b60006020820190508181036000830152611f8281611db9565b9050919050565b60006020820190508181036000830152611fa38184611e1f565b905092915050565b6000602082019050611fc06000830184611e91565b92915050565b6000604051905081810181811067ffffffffffffffff82111715611fe957600080fd5b8060405250919050565b600067ffffffffffffffff82111561200a57600080fd5b601f19601f8301169050602081019050919050565b600081519050919050565b600081519050919050565b600081905092915050565b600082825260208201905092915050565b600082825260208201905092915050565b600061206d8261208a565b9050919050565b60008115159050919050565b6000819050919050565b600073ffffffffffffffffffffffffffffffffffffffff82169050919050565b6000819050919050565b82818337600083830152505050565b60005b838110156120e15780820151818401526020810190506120c6565b838111156120f0576000848401525b50505050565b6000601f19601f8301169050919050565b61211081612062565b811461211b57600080fd5b50565b61212781612080565b811461213257600080fd5b50565b61213e816120aa565b811461214957600080fd5b5056fea365627a7a72315820fa6e7ea42097e6ec1c15190541dcb05ff9ff29199ffb4b4c7e7709f02cb6c7566c6578706572696d656e74616cf564736f6c63430005100040",
  "source": "pragma solidity >=0.4.0 <0.6.0;\r\npragma experimental ABIEncoderV2;\r\n\r\n\r\ncontract RentSpatialNode {\r\n    // Contact information of node owners.\r\n    struct Actor {\r\n        address publicAddress;\r\n        string ipAdress;\r\n        uint port;\r\n        uint priority;\r\n    }\r\n\r\n    // RentedNode holds complete information about a node rental.\r\n    struct RentedNode {\r\n        Actor owner;\r\n        uint startTime; // POSIX time.\r\n        uint endTime;\r\n    }\r\n\r\n    // Specific priorities for actors in the network.\r\n    mapping(address => uint) priorities;\r\n\r\n    // Maps coordinates to list of bookings.\r\n    mapping(bytes => RentedNode[]) rentedNodes;\r\n\r\n    address private contractOwner;\r\n\r\n    // Set the deployer of the contract to be contract owner.\r\n    constructor() public {\r\n        contractOwner = msg.sender;\r\n    }\r\n\r\n    // The contract owner can set priority for addresses. Any addresses\r\n    // that does not have an explicit priority gets the default 0.\r\n    function SetPriority(address _address, uint _priority) public {\r\n        require(msg.sender == contractOwner, \"Only contract owner can set priority.\");\r\n        priorities[_address] = _priority;\r\n    }\r\n\r\n    // CheckAvailable checks if the given node is currently available for the.\r\n    function CheckAvailable(int _x, int _y, int _z, uint _start, uint _end) public view returns(bool) {\r\n        bytes memory key = abi.encode(_x, _y, _z);\r\n\r\n        for (uint i = 0; i < rentedNodes[key].length; i++) {\r\n            RentedNode memory currentNode = rentedNodes[key][i];\r\n\r\n            // If the requested start or end times are contained in another booking, the requested time is not avilable.\r\n            if ((_start >= currentNode.startTime    && _start < currentNode.endTime)    ||\r\n                (_end > currentNode.startTime       && _end <= currentNode.endTime)     ||\r\n                (_start <= currentNode.startTime    && _end >= currentNode.endTime)) {\r\n                return false;\r\n            }\r\n        }\r\n\r\n        // If the loop completed, the node is available for the requested time.\r\n        return true;\r\n    }\r\n\r\n    // UpdateNode removes the given node if the time has expired.\r\n    function UpdateNode(int _x, int _y, int _z) private {\r\n        bytes memory key = abi.encode(_x, _y, _z);\r\n\r\n        // Loop over bookings of given node and remove any expired.\r\n        for (uint i = 0; i < rentedNodes[key].length; i++) {\r\n            if (now > rentedNodes[key][i].endTime) {\r\n                // Order does not matter, replace element to remove with last element\r\n                // and delete last element to reduce size and avoid gaps.\r\n                rentedNodes[key][i] = rentedNodes[key][rentedNodes[key].length-1];\r\n                delete rentedNodes[key][rentedNodes[key].length-1];\r\n                rentedNodes[key].length--;\r\n            }\r\n        }\r\n    }\r\n\r\n    event Success(bool success);\r\n\r\n    // Rent attempts to rent a node if available.\r\n    function RentNode(int _x, int _y, int _z, uint _start, uint _duration, string memory _ip, uint _port) public {\r\n        // If the given start time has passed, use the current time instead.\r\n        if (_start < now) {\r\n            _start = now;\r\n        }\r\n        uint endTime = _start + _duration;\r\n\r\n        // Update the node to clear memory.\r\n        UpdateNode(_x, _y, _z);\r\n\r\n        if(!CheckAvailable(_x, _y, _z, _start, endTime)) {\r\n            emit Success(false);\r\n        } else {\r\n            /*\r\n                If this should cost money, charge here.\r\n            */\r\n            rentedNodes[abi.encode(_x, _y, _z)].push(RentedNode(Actor(msg.sender, _ip, _port, priorities[msg.sender]), _start, endTime));\r\n            emit Success(true);\r\n        }\r\n    }\r\n\r\n    // GetOwner returns the information of the current owner.\r\n    function GetOwner(int _x, int _y, int _z) public view returns (Actor memory) {\r\n        bytes memory key = abi.encode(_x, _y, _z);\r\n\r\n        Actor memory owner = Actor(address(0), '', 0, 0);\r\n\r\n        // Search through bookings of the given node to find the current owner.\r\n        for (uint i = 0; i < rentedNodes[key].length; i++) {\r\n            RentedNode memory currentNode = rentedNodes[key][i];\r\n            if (currentNode.startTime <= now && currentNode.endTime >= now) {\r\n                owner = currentNode.owner;\r\n                break;\r\n            }\r\n        }\r\n        return owner;\r\n    }\r\n\r\n    // GetEndTime returns the end time of the current rental,\r\n    // if none, returns 0.\r\n    function GetEndTime(int _x, int _y, int _z) public view returns (uint) {\r\n        bytes memory key = abi.encode(_x, _y, _z);\r\n\r\n        for (uint i = 0; i < rentedNodes[key].length; i++) {\r\n            RentedNode memory currentNode = rentedNodes[key][i];\r\n            if (currentNode.startTime < now && currentNode.endTime > now) {\r\n                return currentNode.endTime;\r\n            }\r\n        }\r\n        return 0;\r\n    }\r\n\r\n    // Changes the owner of a node for the remainder of the rental period.\r\n    // Requires that the current owner requests the change.\r\n    function ChangeOwner(int _x, int _y, int _z, address _newOwner, string memory _ip, uint _port) public {\r\n        uint ownerIndex = 0;\r\n        bool foundOwner = false;\r\n\r\n        // Find the current owner of the given node.\r\n        bytes memory key = abi.encode(_x, _y, _z);\r\n        for (uint i = 0; i < rentedNodes[key].length; i++) {\r\n            RentedNode memory currentNode = rentedNodes[key][i];\r\n            if (currentNode.startTime < now && currentNode.endTime > now) {\r\n                ownerIndex = i;\r\n                foundOwner = true;\r\n                break;\r\n            }\r\n        }\r\n        // Assert that an owner was found.\r\n        require(foundOwner, \"No owner was found for this node.\");\r\n\r\n        // Assert that the current owner requested the change in ownership.\r\n        require(msg.sender == rentedNodes[key][ownerIndex].owner.publicAddress, \"Owner must request the change in ownership.\");\r\n\r\n        // Set the new owner.\r\n        rentedNodes[key][ownerIndex].owner = Actor(_newOwner, _ip, _port, priorities[_newOwner]);\r\n    }\r\n\r\n    // Adds time to an existing rental, used after node exchange.\r\n    function AddTimeToRental(int _x, int _y, int _z, uint _duration) public {\r\n        bytes memory key = abi.encode(_x, _y, _z);\r\n\r\n        uint rentalIndex = 0;\r\n\r\n        // Find the current active rental of the given node.\r\n        for (uint i = 0; i < rentedNodes[key].length; i++) {\r\n            RentedNode memory currentNode = rentedNodes[key][i];\r\n            if (currentNode.startTime < now && currentNode.endTime > now) {\r\n                rentalIndex = i;\r\n                break;\r\n            }\r\n        }\r\n        require(msg.sender == rentedNodes[key][rentalIndex].owner.publicAddress, \"Only owner can add time.\");\r\n        rentedNodes[key][rentalIndex].endTime += _duration;\r\n    }\r\n}\r\n",
  "sourcePath": "G:\\truffle\\contracts\\RentSpatialNode.sol",
  "compiler": {
    "name": "solc",
    "version": "0.5.16+commit.9c3226ce.Emscripten.clang"
  },
  "schemaVersion": "3.0.23",
  "updatedAt": "2020-03-13T09:20:40.864Z",
  "devdoc": {
    "methods": {}
  },
  "userdoc": {
    "methods": {}
  }
}