{
  "contractName": "RentSpatialNode",
  "abi": [
    {
      "inputs": [],
      "payable": false,
      "stateMutability": "nonpayable",
      "type": "constructor"
    },
    {
      "anonymous": false,
      "inputs": [
        {
          "indexed": false,
          "internalType": "bool",
          "name": "success",
          "type": "bool"
        }
      ],
      "name": "Success",
      "type": "event"
    },
    {
      "constant": false,
      "inputs": [
        {
          "internalType": "address",
          "name": "_address",
          "type": "address"
        },
        {
          "internalType": "uint256",
          "name": "_priority",
          "type": "uint256"
        }
      ],
      "name": "SetPriority",
      "outputs": [],
      "payable": false,
      "stateMutability": "nonpayable",
      "type": "function"
    },
    {
      "constant": true,
      "inputs": [
        {
          "internalType": "int256",
          "name": "_x",
          "type": "int256"
        },
        {
          "internalType": "int256",
          "name": "_y",
          "type": "int256"
        },
        {
          "internalType": "int256",
          "name": "_z",
          "type": "int256"
        },
        {
          "internalType": "uint256",
          "name": "_start",
          "type": "uint256"
        },
        {
          "internalType": "uint256",
          "name": "_end",
          "type": "uint256"
        }
      ],
      "name": "CheckAvailable",
      "outputs": [
        {
          "internalType": "bool",
          "name": "",
          "type": "bool"
        }
      ],
      "payable": false,
      "stateMutability": "view",
      "type": "function"
    },
    {
      "constant": false,
      "inputs": [
        {
          "internalType": "int256",
          "name": "_x",
          "type": "int256"
        },
        {
          "internalType": "int256",
          "name": "_y",
          "type": "int256"
        },
        {
          "internalType": "int256",
          "name": "_z",
          "type": "int256"
        },
        {
          "internalType": "uint256",
          "name": "_start",
          "type": "uint256"
        },
        {
          "internalType": "uint256",
          "name": "_duration",
          "type": "uint256"
        },
        {
          "internalType": "string",
          "name": "_ip",
          "type": "string"
        },
        {
          "internalType": "uint256",
          "name": "_port",
          "type": "uint256"
        }
      ],
      "name": "RentNode",
      "outputs": [],
      "payable": false,
      "stateMutability": "nonpayable",
      "type": "function"
    },
    {
      "constant": true,
      "inputs": [
        {
          "internalType": "int256",
          "name": "_x",
          "type": "int256"
        },
        {
          "internalType": "int256",
          "name": "_y",
          "type": "int256"
        },
        {
          "internalType": "int256",
          "name": "_z",
          "type": "int256"
        }
      ],
      "name": "GetOwner",
      "outputs": [
        {
          "components": [
            {
              "internalType": "address",
              "name": "publicAddress",
              "type": "address"
            },
            {
              "internalType": "string",
              "name": "ipAdress",
              "type": "string"
            },
            {
              "internalType": "uint256",
              "name": "port",
              "type": "uint256"
            },
            {
              "internalType": "uint256",
              "name": "priority",
              "type": "uint256"
            }
          ],
          "internalType": "struct RentSpatialNode.Actor",
          "name": "",
          "type": "tuple"
        }
      ],
      "payable": false,
      "stateMutability": "view",
      "type": "function"
    },
    {
      "constant": true,
      "inputs": [
        {
          "internalType": "int256",
          "name": "_x",
          "type": "int256"
        },
        {
          "internalType": "int256",
          "name": "_y",
          "type": "int256"
        },
        {
          "internalType": "int256",
          "name": "_z",
          "type": "int256"
        }
      ],
      "name": "GetEndTime",
      "outputs": [
        {
          "internalType": "uint256",
          "name": "",
          "type": "uint256"
        }
      ],
      "payable": false,
      "stateMutability": "view",
      "type": "function"
    },
    {
      "constant": false,
      "inputs": [
        {
          "internalType": "int256",
          "name": "_x",
          "type": "int256"
        },
        {
          "internalType": "int256",
          "name": "_y",
          "type": "int256"
        },
        {
          "internalType": "int256",
          "name": "_z",
          "type": "int256"
        },
        {
          "internalType": "address",
          "name": "_newOwner",
          "type": "address"
        },
        {
          "internalType": "string",
          "name": "_ip",
          "type": "string"
        },
        {
          "internalType": "uint256",
          "name": "_port",
          "type": "uint256"
        }
      ],
      "name": "ChangeOwner",
      "outputs": [],
      "payable": false,
      "stateMutability": "nonpayable",
      "type": "function"
    },
    {
      "constant": false,
      "inputs": [
        {
          "internalType": "int256",
          "name": "_x",
          "type": "int256"
        },
        {
          "internalType": "int256",
          "name": "_y",
          "type": "int256"
        },
        {
          "internalType": "int256",
          "name": "_z",
          "type": "int256"
        },
        {
          "internalType": "uint256",
          "name": "_duration",
          "type": "uint256"
        }
      ],
      "name": "AddTimeToRental",
      "outputs": [],
      "payable": false,
      "stateMutability": "nonpayable",
      "type": "function"
    }
  ],
  "bytecode": "0x608060405234801561001057600080fd5b5033600260006101000a81548173ffffffffffffffffffffffffffffffffffffffff021916908373ffffffffffffffffffffffffffffffffffffffff160217905550612077806100616000396000f3fe608060405234801561001057600080fd5b506004361061007d5760003560e01c806379be1d5a1161005b57806379be1d5a146100d657806381af0a69146100f257806381cff33914610122578063db362a33146101525761007d565b80631b64b8521461008257806332b3c1331461009e578063799b4f53146100ba575b600080fd5b61009c60048036036100979190810190611a39565b610182565b005b6100b860048036036100b39190810190611bb4565b6105df565b005b6100d460048036036100cf91908101906119ae565b610823565b005b6100f060048036036100eb9190810190611ada565b6108fa565b005b61010c60048036036101079190810190611b3d565b610c73565b6040516101199190611dff565b60405180910390f35b61013c600480360361013791908101906119ea565b610ecf565b6040516101499190611e93565b60405180910390f35b61016c600480360361016791908101906119ea565b6110ee565b6040516101799190611e71565b60405180910390f35b6000809050600080905060608888886040516020016101a393929190611e1a565b604051602081830303815290604052905060008090505b6001826040516101ca9190611de8565b908152602001604051809103902080549050811015610399576101eb611655565b6001836040516101fb9190611de8565b9081526020016040518091039020828154811061021457fe5b9060005260206000209060060201604051806060016040529081600082016040518060800160405290816000820160009054906101000a900473ffffffffffffffffffffffffffffffffffffffff1673ffffffffffffffffffffffffffffffffffffffff1673ffffffffffffffffffffffffffffffffffffffff168152602001600182018054600181600116156101000203166002900480601f01602080910402602001604051908101604052809291908181526020018280546001816001161561010002031660029004801561032c5780601f106103015761010080835404028352916020019161032c565b820191906000526020600020905b81548152906001019060200180831161030f57829003601f168201915b505050505081526020016002820154815260200160038201548152505081526020016004820154815260200160058201548152505090504281602001511080156103795750428160400151115b1561038b578194506001935050610399565b5080806001019150506101ba565b5081801561042f57506001816040516103b29190611de8565b908152602001604051809103902083815481106103cb57fe5b906000526020600020906006020160000160000160009054906101000a900473ffffffffffffffffffffffffffffffffffffffff1673ffffffffffffffffffffffffffffffffffffffff163373ffffffffffffffffffffffffffffffffffffffff16145b1561059b5760405180608001604052808773ffffffffffffffffffffffffffffffffffffffff1681526020018681526020018581526020016000808973ffffffffffffffffffffffffffffffffffffffff1673ffffffffffffffffffffffffffffffffffffffff168152602001908152602001600020548152506001826040516104b99190611de8565b908152602001604051809103902084815481106104d257fe5b906000526020600020906006020160000160008201518160000160006101000a81548173ffffffffffffffffffffffffffffffffffffffff021916908373ffffffffffffffffffffffffffffffffffffffff160217905550602082015181600101908051906020019061054692919061167c565b5060408201518160020155606082015181600301559050507f3b0a8ddef325df2bfdfa6b430ae4c8421841cd135bfa8fb5e432f200787520bb600160405161058e9190611dff565b60405180910390a16105d4565b7f3b0a8ddef325df2bfdfa6b430ae4c8421841cd135bfa8fb5e432f200787520bb60006040516105cb9190611dff565b60405180910390a15b505050505050505050565b428410156105eb574293505b600083850190506105fd888888611365565b61060a8888888885610c73565b61064b577f3b0a8ddef325df2bfdfa6b430ae4c8421841cd135bfa8fb5e432f200787520bb600060405161063e9190611dff565b60405180910390a1610819565b600188888860405160200161066293929190611e1a565b60405160208183030381529060405260405161067e9190611de8565b9081526020016040518091039020604051806060016040528060405180608001604052803373ffffffffffffffffffffffffffffffffffffffff1681526020018781526020018681526020016000803373ffffffffffffffffffffffffffffffffffffffff1673ffffffffffffffffffffffffffffffffffffffff168152602001908152602001600020548152508152602001878152602001838152509080600181540180825580915050906001820390600052602060002090600602016000909192909190915060008201518160000160008201518160000160006101000a81548173ffffffffffffffffffffffffffffffffffffffff021916908373ffffffffffffffffffffffffffffffffffffffff16021790555060208201518160010190805190602001906107b292919061167c565b506040820151816002015560608201518160030155505060208201518160040155604082015181600501555050507f3b0a8ddef325df2bfdfa6b430ae4c8421841cd135bfa8fb5e432f200787520bb60016040516108109190611dff565b60405180910390a15b5050505050505050565b600260009054906101000a900473ffffffffffffffffffffffffffffffffffffffff1673ffffffffffffffffffffffffffffffffffffffff163373ffffffffffffffffffffffffffffffffffffffff16146108b3576040517f08c379a00000000000000000000000000000000000000000000000000000000081526004016108aa90611e51565b60405180910390fd5b806000808473ffffffffffffffffffffffffffffffffffffffff1673ffffffffffffffffffffffffffffffffffffffff168152602001908152602001600020819055505050565b606084848460405160200161091193929190611e1a565b60405160208183030381529060405290506000809050600080905060008090505b6001846040516109429190611de8565b908152602001604051809103902080549050811015610b1157610963611655565b6001856040516109739190611de8565b9081526020016040518091039020828154811061098c57fe5b9060005260206000209060060201604051806060016040529081600082016040518060800160405290816000820160009054906101000a900473ffffffffffffffffffffffffffffffffffffffff1673ffffffffffffffffffffffffffffffffffffffff1673ffffffffffffffffffffffffffffffffffffffff168152602001600182018054600181600116156101000203166002900480601f016020809104026020016040519081016040528092919081815260200182805460018160011615610100020316600290048015610aa45780601f10610a7957610100808354040283529160200191610aa4565b820191906000526020600020905b815481529060010190602001808311610a8757829003601f168201915b50505050508152602001600282015481526020016003820154815250508152602001600482015481526020016005820154815250509050428160200151108015610af15750428160400151115b15610b03576001925081935050610b11565b508080600101915050610932565b50808015610ba75750600183604051610b2a9190611de8565b90815260200160405180910390208281548110610b4357fe5b906000526020600020906006020160000160000160009054906101000a900473ffffffffffffffffffffffffffffffffffffffff1673ffffffffffffffffffffffffffffffffffffffff163373ffffffffffffffffffffffffffffffffffffffff16145b15610c315783600184604051610bbd9190611de8565b90815260200160405180910390208381548110610bd657fe5b9060005260206000209060060201600501600082825401925050819055507f3b0a8ddef325df2bfdfa6b430ae4c8421841cd135bfa8fb5e432f200787520bb6001604051610c249190611dff565b60405180910390a1610c6a565b7f3b0a8ddef325df2bfdfa6b430ae4c8421841cd135bfa8fb5e432f200787520bb6000604051610c619190611dff565b60405180910390a15b50505050505050565b60006060868686604051602001610c8c93929190611e1a565b604051602081830303815290604052905060008090505b600182604051610cb39190611de8565b908152602001604051809103902080549050811015610ebf57610cd4611655565b600183604051610ce49190611de8565b90815260200160405180910390208281548110610cfd57fe5b9060005260206000209060060201604051806060016040529081600082016040518060800160405290816000820160009054906101000a900473ffffffffffffffffffffffffffffffffffffffff1673ffffffffffffffffffffffffffffffffffffffff1673ffffffffffffffffffffffffffffffffffffffff168152602001600182018054600181600116156101000203166002900480601f016020809104026020016040519081016040528092919081815260200182805460018160011615610100020316600290048015610e155780601f10610dea57610100808354040283529160200191610e15565b820191906000526020600020905b815481529060010190602001808311610df857829003601f168201915b5050505050815260200160028201548152602001600382015481525050815260200160048201548152602001600582015481525050905080602001518610158015610e635750806040015186105b80610e815750806020015185118015610e80575080604001518511155b5b80610ea0575080602001518611158015610e9f575080604001518510155b5b15610eb15760009350505050610ec6565b508080600101915050610ca3565b5060019150505b95945050505050565b60006060848484604051602001610ee893929190611e1a565b604051602081830303815290604052905060008090505b600182604051610f0f9190611de8565b9081526020016040518091039020805490508110156110e057610f30611655565b600183604051610f409190611de8565b90815260200160405180910390208281548110610f5957fe5b9060005260206000209060060201604051806060016040529081600082016040518060800160405290816000820160009054906101000a900473ffffffffffffffffffffffffffffffffffffffff1673ffffffffffffffffffffffffffffffffffffffff1673ffffffffffffffffffffffffffffffffffffffff168152602001600182018054600181600116156101000203166002900480601f0160208091040260200160405190810160405280929190818152602001828054600181600116156101000203166002900480156110715780601f1061104657610100808354040283529160200191611071565b820191906000526020600020905b81548152906001019060200180831161105457829003601f168201915b505050505081526020016002820154815260200160038201548152505081526020016004820154815260200160058201548152505090504281602001511080156110be5750428160400151115b156110d257806040015193505050506110e7565b508080600101915050610eff565b5060009150505b9392505050565b6110f66116fc565b606084848460405160200161110d93929190611e1a565b60405160208183030381529060405290506111266116fc565b6040518060800160405280600073ffffffffffffffffffffffffffffffffffffffff168152602001604051806020016040528060008152508152602001600081526020016000815250905060008090505b6001836040516111879190611de8565b908152602001604051809103902080549050811015611358576111a8611655565b6001846040516111b89190611de8565b908152602001604051809103902082815481106111d157fe5b9060005260206000209060060201604051806060016040529081600082016040518060800160405290816000820160009054906101000a900473ffffffffffffffffffffffffffffffffffffffff1673ffffffffffffffffffffffffffffffffffffffff1673ffffffffffffffffffffffffffffffffffffffff168152602001600182018054600181600116156101000203166002900480601f0160208091040260200160405190810160405280929190818152602001828054600181600116156101000203166002900480156112e95780601f106112be576101008083540402835291602001916112e9565b820191906000526020600020905b8154815290600101906020018083116112cc57829003601f168201915b5050505050815260200160028201548152602001600382015481525050815260200160048201548152602001600582015481525050905042816020015111158015611338575042816040015110155b1561134a578060000151925050611358565b508080600101915050611177565b5080925050509392505050565b606083838360405160200161137c93929190611e1a565b604051602081830303815290604052905060008090505b6001826040516113a39190611de8565b90815260200160405180910390208054905081101561164e576001826040516113cc9190611de8565b908152602001604051809103902081815481106113e557fe5b9060005260206000209060060201600501544211156116415760018260405161140e9190611de8565b90815260200160405180910390206001808460405161142d9190611de8565b908152602001604051809103902080549050038154811061144a57fe5b90600052602060002090600602016001836040516114689190611de8565b9081526020016040518091039020828154811061148157fe5b906000526020600020906006020160008201816000016000820160009054906101000a900473ffffffffffffffffffffffffffffffffffffffff168160000160006101000a81548173ffffffffffffffffffffffffffffffffffffffff021916908373ffffffffffffffffffffffffffffffffffffffff1602179055506001820181600101908054600181600116156101000203166002900461152592919061173a565b506002820154816002015560038201548160030155505060048201548160040155600582015481600501559050506001826040516115639190611de8565b9081526020016040518091039020600180846040516115829190611de8565b908152602001604051809103902080549050038154811061159f57fe5b90600052602060002090600602016000808201600080820160006101000a81549073ffffffffffffffffffffffffffffffffffffffff02191690556001820160006115ea91906117c1565b60028201600090556003820160009055505060048201600090556005820160009055505060018260405161161e9190611de8565b908152602001604051809103902080548091906001900361163f9190611809565b505b8080600101915050611393565b5050505050565b604051806060016040528061166861183b565b815260200160008152602001600081525090565b828054600181600116156101000203166002900490600052602060002090601f016020900481019282601f106116bd57805160ff19168380011785556116eb565b828001600101855582156116eb579182015b828111156116ea5782518255916020019190600101906116cf565b5b5090506116f89190611879565b5090565b6040518060800160405280600073ffffffffffffffffffffffffffffffffffffffff1681526020016060815260200160008152602001600081525090565b828054600181600116156101000203166002900490600052602060002090601f016020900481019282601f1061177357805485556117b0565b828001600101855582156117b057600052602060002091601f016020900482015b828111156117af578254825591600101919060010190611794565b5b5090506117bd9190611879565b5090565b50805460018160011615610100020316600290046000825580601f106117e75750611806565b601f0160209004906000526020600020908101906118059190611879565b5b50565b81548183558181111561183657600602816006028360005260206000209182019101611835919061189e565b5b505050565b6040518060800160405280600073ffffffffffffffffffffffffffffffffffffffff1681526020016060815260200160008152602001600081525090565b61189b91905b8082111561189757600081600090555060010161187f565b5090565b90565b61191891905b80821115611914576000808201600080820160006101000a81549073ffffffffffffffffffffffffffffffffffffffff02191690556001820160006118e991906117c1565b60028201600090556003820160009055505060048201600090556005820160009055506006016118a4565b5090565b90565b60008135905061192a81611fef565b92915050565b60008135905061193f81612006565b92915050565b600082601f83011261195657600080fd5b813561196961196482611edb565b611eae565b9150808252602083016020830185838301111561198557600080fd5b611990838284611f9c565b50505092915050565b6000813590506119a88161201d565b92915050565b600080604083850312156119c157600080fd5b60006119cf8582860161191b565b92505060206119e085828601611999565b9150509250929050565b6000806000606084860312156119ff57600080fd5b6000611a0d86828701611930565b9350506020611a1e86828701611930565b9250506040611a2f86828701611930565b9150509250925092565b60008060008060008060c08789031215611a5257600080fd5b6000611a6089828a01611930565b9650506020611a7189828a01611930565b9550506040611a8289828a01611930565b9450506060611a9389828a0161191b565b935050608087013567ffffffffffffffff811115611ab057600080fd5b611abc89828a01611945565b92505060a0611acd89828a01611999565b9150509295509295509295565b60008060008060808587031215611af057600080fd5b6000611afe87828801611930565b9450506020611b0f87828801611930565b9350506040611b2087828801611930565b9250506060611b3187828801611999565b91505092959194509250565b600080600080600060a08688031215611b5557600080fd5b6000611b6388828901611930565b9550506020611b7488828901611930565b9450506040611b8588828901611930565b9350506060611b9688828901611999565b9250506080611ba788828901611999565b9150509295509295909350565b600080600080600080600060e0888a031215611bcf57600080fd5b6000611bdd8a828b01611930565b9750506020611bee8a828b01611930565b9650506040611bff8a828b01611930565b9550506060611c108a828b01611999565b9450506080611c218a828b01611999565b93505060a088013567ffffffffffffffff811115611c3e57600080fd5b611c4a8a828b01611945565b92505060c0611c5b8a828b01611999565b91505092959891949750929550565b611c7381611f4a565b82525050565b611c8281611f5c565b82525050565b6000611c9382611f07565b611c9d8185611f1d565b9350611cad818560208601611fab565b80840191505092915050565b611cc281611f68565b82525050565b6000611cd382611f12565b611cdd8185611f28565b9350611ced818560208601611fab565b611cf681611fde565b840191505092915050565b6000611d0e602583611f39565b91507f4f6e6c7920636f6e7472616374206f776e65722063616e20736574207072696f60008301527f726974792e0000000000000000000000000000000000000000000000000000006020830152604082019050919050565b6000608083016000830151611d7f6000860182611c6a565b5060208301518482036020860152611d978282611cc8565b9150506040830151611dac6040860182611dca565b506060830151611dbf6060860182611dca565b508091505092915050565b611dd381611f92565b82525050565b611de281611f92565b82525050565b6000611df48284611c88565b915081905092915050565b6000602082019050611e146000830184611c79565b92915050565b6000606082019050611e2f6000830186611cb9565b611e3c6020830185611cb9565b611e496040830184611cb9565b949350505050565b60006020820190508181036000830152611e6a81611d01565b9050919050565b60006020820190508181036000830152611e8b8184611d67565b905092915050565b6000602082019050611ea86000830184611dd9565b92915050565b6000604051905081810181811067ffffffffffffffff82111715611ed157600080fd5b8060405250919050565b600067ffffffffffffffff821115611ef257600080fd5b601f19601f8301169050602081019050919050565b600081519050919050565b600081519050919050565b600081905092915050565b600082825260208201905092915050565b600082825260208201905092915050565b6000611f5582611f72565b9050919050565b60008115159050919050565b6000819050919050565b600073ffffffffffffffffffffffffffffffffffffffff82169050919050565b6000819050919050565b82818337600083830152505050565b60005b83811015611fc9578082015181840152602081019050611fae565b83811115611fd8576000848401525b50505050565b6000601f19601f8301169050919050565b611ff881611f4a565b811461200357600080fd5b50565b61200f81611f68565b811461201a57600080fd5b50565b61202681611f92565b811461203157600080fd5b5056fea365627a7a723158201c8dcf59bc43c7270467c6894d274e52bbf6f33639a7806d6fa111422022e1bd6c6578706572696d656e74616cf564736f6c63430005100040",
  "source": "pragma solidity >=0.4.0 <0.6.0;\r\npragma experimental ABIEncoderV2;\r\n\r\n\r\ncontract RentSpatialNode {\r\n    // Contact information of node owners.\r\n    struct Actor {\r\n        address publicAddress;\r\n        string ipAdress;\r\n        uint port;\r\n        uint priority;\r\n    }\r\n\r\n    // RentedNode holds complete information about a node rental.\r\n    struct RentedNode {\r\n        Actor owner;\r\n        uint startTime; // POSIX time.\r\n        uint endTime;\r\n    }\r\n\r\n    // Specific priorities for actors in the network.\r\n    mapping(address => uint) priorities;\r\n\r\n    // Maps coordinates to list of bookings.\r\n    mapping(bytes => RentedNode[]) rentedNodes;\r\n\r\n    address private contractOwner;\r\n\r\n    // Set the deployer of the contract to be contract owner.\r\n    constructor() public {\r\n        contractOwner = msg.sender;\r\n    }\r\n\r\n    // The contract owner can set priority for addresses. Any addresses\r\n    // that does not have an explicit priority gets the default 0.\r\n    function SetPriority(address _address, uint _priority) public {\r\n        require(msg.sender == contractOwner, \"Only contract owner can set priority.\");\r\n        priorities[_address] = _priority;\r\n    }\r\n\r\n    // CheckAvailable checks if the given node is currently available for the.\r\n    function CheckAvailable(int _x, int _y, int _z, uint _start, uint _end) public view returns(bool) {\r\n        bytes memory key = abi.encode(_x, _y, _z);\r\n\r\n        for (uint i = 0; i < rentedNodes[key].length; i++) {\r\n            RentedNode memory currentNode = rentedNodes[key][i];\r\n\r\n            // If the requested start or end times are contained in another booking, the requested time is not avilable.\r\n            if ((_start >= currentNode.startTime    && _start < currentNode.endTime)    ||\r\n                (_end > currentNode.startTime       && _end <= currentNode.endTime)     ||\r\n                (_start <= currentNode.startTime    && _end >= currentNode.endTime)) {\r\n                return false;\r\n            }\r\n        }\r\n\r\n        // If the loop completed, the node is available for the requested time.\r\n        return true;\r\n    }\r\n\r\n    // UpdateNode removes the given node if the time has expired.\r\n    function UpdateNode(int _x, int _y, int _z) private {\r\n        bytes memory key = abi.encode(_x, _y, _z);\r\n\r\n        // Loop over bookings of given node and remove any expired.\r\n        for (uint i = 0; i < rentedNodes[key].length; i++) {\r\n            if (now > rentedNodes[key][i].endTime) {\r\n                // Order does not matter, replace element to remove with last element\r\n                // and delete last element to reduce size and avoid gaps.\r\n                rentedNodes[key][i] = rentedNodes[key][rentedNodes[key].length-1];\r\n                delete rentedNodes[key][rentedNodes[key].length-1];\r\n                rentedNodes[key].length--;\r\n            }\r\n        }\r\n    }\r\n\r\n    event Success(bool success);\r\n\r\n    // Rent attempts to rent a node if available.\r\n    function RentNode(int _x, int _y, int _z, uint _start, uint _duration, string memory _ip, uint _port) public {\r\n        // If the given start time has passed, use the current time instead.\r\n        if (_start < now) {\r\n            _start = now;\r\n        }\r\n        uint endTime = _start + _duration;\r\n\r\n        // Update the node to clear memory.\r\n        UpdateNode(_x, _y, _z);\r\n\r\n        if(!CheckAvailable(_x, _y, _z, _start, endTime)) {\r\n            emit Success(false);\r\n        } else {\r\n            /*\r\n                If this should cost money, charge here.\r\n            */\r\n            rentedNodes[abi.encode(_x, _y, _z)].push(RentedNode(Actor(msg.sender, _ip, _port, priorities[msg.sender]), _start, endTime));\r\n            emit Success(true);\r\n        }\r\n    }\r\n\r\n    // GetOwner returns the information of the current owner.\r\n    function GetOwner(int _x, int _y, int _z) public view returns (Actor memory) {\r\n        bytes memory key = abi.encode(_x, _y, _z);\r\n\r\n        Actor memory owner = Actor(address(0), '', 0, 0);\r\n\r\n        // Search through bookings of the given node to find the current owner.\r\n        for (uint i = 0; i < rentedNodes[key].length; i++) {\r\n            RentedNode memory currentNode = rentedNodes[key][i];\r\n            if (currentNode.startTime <= now && currentNode.endTime >= now) {\r\n                owner = currentNode.owner;\r\n                break;\r\n            }\r\n        }\r\n        return owner;\r\n    }\r\n\r\n    // GetEndTime returns the end time of the current rental,\r\n    // if none, returns 0.\r\n    function GetEndTime(int _x, int _y, int _z) public view returns (uint) {\r\n        bytes memory key = abi.encode(_x, _y, _z);\r\n\r\n        for (uint i = 0; i < rentedNodes[key].length; i++) {\r\n            RentedNode memory currentNode = rentedNodes[key][i];\r\n            if (currentNode.startTime < now && currentNode.endTime > now) {\r\n                return currentNode.endTime;\r\n            }\r\n        }\r\n        return 0;\r\n    }\r\n\r\n    // Changes the owner of a node for the remainder of the rental period.\r\n    // Requires that the current owner requests the change.\r\n    function ChangeOwner(int _x, int _y, int _z, address _newOwner, string memory _ip, uint _port) public {\r\n        uint ownerIndex = 0;\r\n        bool foundOwner = false;\r\n\r\n        // Find the current owner of the given node.\r\n        bytes memory key = abi.encode(_x, _y, _z);\r\n        for (uint i = 0; i < rentedNodes[key].length; i++) {\r\n            RentedNode memory currentNode = rentedNodes[key][i];\r\n            if (currentNode.startTime < now && currentNode.endTime > now) {\r\n                ownerIndex = i;\r\n                foundOwner = true;\r\n                break;\r\n            }\r\n        }\r\n        // Change owner if owner is found and sender is owner. Emit event to let client know the result.\r\n        if (foundOwner && msg.sender == rentedNodes[key][ownerIndex].owner.publicAddress) {\r\n          rentedNodes[key][ownerIndex].owner = Actor(_newOwner, _ip, _port, priorities[_newOwner]);\r\n          emit Success(true);\r\n        }\r\n        else {\r\n          emit Success(false);\r\n        }\r\n    }\r\n\r\n    // Adds time to an existing rental, used after node exchange.\r\n    function AddTimeToRental(int _x, int _y, int _z, uint _duration) public {\r\n        bytes memory key = abi.encode(_x, _y, _z);\r\n\r\n        uint rentalIndex = 0;\r\n        bool foundRental = false;\r\n\r\n        // Find the current active rental of the given node.\r\n        for (uint i = 0; i < rentedNodes[key].length; i++) {\r\n            RentedNode memory currentNode = rentedNodes[key][i];\r\n            if (currentNode.startTime < now && currentNode.endTime > now) {\r\n                foundRental = true;\r\n                rentalIndex = i;\r\n                break;\r\n            }\r\n        }\r\n        // Add time if rental found and sender is owner. Emit event to let client know the result.\r\n        if (foundRental && msg.sender == rentedNodes[key][rentalIndex].owner.publicAddress) {\r\n          rentedNodes[key][rentalIndex].endTime += _duration;\r\n          emit Success(true);\r\n        }\r\n        else {\r\n          emit Success(false);\r\n        }\r\n    }\r\n}\r\n",
  "sourcePath": "E:\\truffle\\contracts\\RentSpatialNode.sol",
  "compiler": {
    "name": "solc",
    "version": "0.5.16+commit.9c3226ce.Emscripten.clang"
  },
  "schemaVersion": "3.0.23",
  "updatedAt": "2020-03-17T13:07:01.552Z",
  "devdoc": {
    "methods": {}
  },
  "userdoc": {
    "methods": {}
  }
}